:020000040800F2
:10000000B03D002059020008916B000839560008E5
:10001000756B0008AD150008C194000800000000D1
:100020000000000000000000000000009D0100082A
:10003000C917000800000000F10100088D730008D6
:1000400073020008730200087302000873020008BC
:1000500073020008730200087302000873020008AC
:10006000730200087302000873020008730200089C
:10007000730200087302000873020008730200088C
:10008000730200087302000873020008730200087C
:10009000B19400087302000873020008730200089C
:1000A000730200087302000873020008730200085C
:1000B000D17400087302000873020008730200087C
:1000C000730200087302000873020008730200083C
:1000D00073020008E98200083583000845830008A0
:1000E000730200087302000873020008730200081C
:1000F000730200087302000873020008730200080C
:100100000000000000000000000000007302000872
:10011000730200087302000873020008E17400080B
:1001200073020008730200087302000873020008DB
:1001300073020008730200080000000000000000C5
:100140007302000873020008730200080000000038
:10015000000000000000000000000000000000009F
:100160000000000000000000730200087302000895
:100170007302000800000000000000000000000002
:100180000000000073020008DFF80CD000F0BCFC97
:100190000048004775A80008B03D00202B4B1968A7
:1001A0000868B0E8F04F80F30988BFF36F8F4FF015
:1001B000000080F3118870470000000006480068C6
:1001C000006880F3088862B661B6BFF34F8FBFF353
:1001D0006F8F00DF00BF00BF08ED00E0DFF80C000C
:1001E000016841F470010160704700BF88ED00E0D4
:1001F000EFF30980BFF36F8F144B1A681EF0100FD6
:1002000008BF20ED108A20E9F04F106008B44FF0CD
:10021000500080F31188BFF34F8FBFF36F8F0BF047
:100220005FFA4FF0000080F3118808BC1968086875
:10023000B0E8F04F1EF0100F08BFB0EC108A80F34A
:100240000988BFF36F8F704700BF00BF0002002016
:10025000EFF30580704700000648804706480047D6
:10026000FEE7FEE7FEE7FEE7FEE7FEE7FEE7FEE766
:10027000FEE7FEE75574000889010008202A04DB28
:10028000203A21FA02F00021704721FA02F3D0400F
:10029000C2F12002914008431946704740EA010329
:1002A0009B0703D009E008C9121F08C0042AFAD22C
:1002B00003E011F8013B00F8013B521EF9D27047F0
:1002C000D2B201E000F8012B491EFBD27047002298
:1002D000F6E710B513460A4604461946FFF7F0FF45
:1002E000204610BD421C10F8011B0029FBD1801ACA
:1002F000704770B5064609F071F9046805460A2290
:100300000021304600F0B2FA2C6070BD2DE9FE4F9E
:10031000804681EA0300C00F0C46009021F00041A6
:1003200023F00045B8EB0200A94105D24046214622
:1003300090461C460B46024623F00040104347D02F
:10034000270DC7F30A00C3F30A510290401A019027
:1003500040286BDAC3F3130040F4801B00989246E8
:1003600020B10023D2EB030A63EB0B0B0198594633
:10037000C0F14002504600F00AFA06460D465046CB
:100380005946019A00F012FA10EB0800614100246E
:1003900087EA115284EAE7731A4340D0009A62B3A5
:1003A000019A012A4FEA075215DC001B61EB02019A
:1003B0004FF0004202EA0752CDE90042001C41F52D
:1003C000801132462B4600F0CFFA03B0BDE8F08F23
:1003D00040462146F9E7001B61EB0201001C41F594
:1003E000801300185B412018A2F5001747EB0301AA
:1003F00040EAD570B6196D4111E06D084FEA360636
:1004000045EAC0754FEA0752001B61EB0201001C70
:1004100041F5801149084FEA300000195141324638
:100420002B4603B0BDE8F04F00F08FBA00980122D0
:1004300040000023D0EB020263EBE07300982146FA
:100440004FEAE074B8EB000061EB0401E9E783F0E8
:1004500000435BE781F0004158E72DE9FE4F81EA58
:10046000030404F0004421F0004100944FF0000B1D
:1004700023F0004350EA01045ED052EA03045BD04B
:10048000C3F30A54C1F30A552C44A4F2F334019483
:10049000A0FB0254C1F3130141F48011C3F3130311
:1004A00043F4801301FB024400FB034E840A970AC5
:1004B00044EA815447EA8357A4FB076802958D0AF2
:1004C00005FB07854FEA932C04FB0C542705029D7E
:1004D0004FEA065847EA1637B5EB08056EEB070CEE
:1004E000870E920E47EA811742EA8312A7FB0201A8
:1004F000B6EB0B0164EB00042B0D43EA0C335E18E2
:1005000044EB1C50DA465146E7FB0201C5F31304E5
:100510004FEA0B3343EA14534FEA0432019C43EA97
:100520000603A4F10C040294009CCDE900B400F091
:100530001BFA03B0BDE8F08F00200146F9E72DE972
:10054000F04D81EA030404F0004B21F0004514460D
:100550004FF0000A23F0004150EA050220D054EA8F
:1005600001021DD0C5F30A570246C5F31303C1F3B8
:100570001300C1F30A5640F4801543F48013A7EB2F
:100580000608101BD64608F2FD3873EB050002D3AF
:1005900008F1010801E092185B41B8F1000F03DA9D
:1005A00000200146BDE8F08D00204FF48011064682
:1005B00084460EE0171B73EB050705D3121B63EB94
:1005C000050306434CEA010C49084FEA3000921833
:1005D0005B4150EA0107EDD152EA030012D082EAF2
:1005E000040083EA0501084305D0101BAB4106D285
:1005F0000122002306E000224FF0004302E06FF0EA
:10060000010253101AEB06004CEB085110EB0A00E4
:1006100041EB0B01BDE8F04D00F097B90EB5C10FED
:1006200080EAE0700844CA07002140F233438DE8B5
:100630000E000A460B4600F097F903B000BDC1F367
:100640000A5210B5C1F3130140F2FF3341F4801197
:100650009A4201DA002010BD40F233439A42A2F2DE
:10066000334203DC5242FFF709FE10BD904010BD3B
:1006700000F0004230F000400AD0C10D01F5607179
:10068000C0F3160042EA0151C20840071143704707
:10069000002001467047000030B5041E71F10004CF
:1006A00004DB4FF00044404264EB0101141E73F17F
:1006B000000405DB1C464FF00043524263EB040389
:1006C0008B4208BF824230BD01F0004330B421F0BC
:1006D000004150EA010206D00A0DA2F56072C1F392
:1006E0001301002A02DC30BC00207047440F44EAAA
:1006F000C104C100E01830BC00EBC25000F0EEB8FD
:1007000030B50B46014600202022012409E021FAE1
:1007100002F59D4205D303FA02F5491B04FA02F5DE
:100720002844151EA2F10102F1DC30BD2DE9F05F75
:100730000546002092469B46884606468146402450
:100740001BE02846414647462246FFF797FD5346A1
:100750005A46C01A914110D311461846224600F05D
:1007600016F82D1A67EB01084F462246012000219A
:1007700000F00DF817EB00094E41201EA4F1010412
:10078000DFDC484631462A464346BDE8F09F202A32
:1007900004DB203A00FA02F1002070479140C2F1D8
:1007A000200320FA03F3194390407047202A06DB08
:1007B000CB17203A41FA02F043EAE07306E041FA2F
:1007C00002F3D040C2F1200291400843194670471D
:1007D0000FB4002300B589B00CA900910B996FF0FC
:1007E0000042CB601E4B06931E4B07930423CDE9BA
:1007F00001321D4A089202466B46002000F038FA8A
:1008000009B05DF814FB70B586B006464FF0FF30B6
:100810000091CDE90101002015460C4604903246B6
:10082000694604A8FFF7D4FF02460498211825B1B1
:1008300008B1084600E020462860049800280DD042
:10084000002A02DD0098884208D0081B0094CDE9F8
:1008500001043246694604A8FFF7BAFF06B070BD2E
:10086000A90E0008C70E0008350B00082DE9F04757
:1008700091460F4680460446002614F8015B2DB1D0
:1008800000F054F90068405DC007F6D12B2D02D06E
:100890002D2D18D0641E4A463946204600F024FB10
:1008A00027B13968A14201D1C7F8008071054FF026
:1008B00002040BD54042002803DD08F08FFE0460DF
:1008C000A007BDE8F08746F48066E4E70028F8DA80
:1008D00008F084FE04606FF00040F2E70029A8BF32
:1008E0007047401C490008BF20F00100704710B459
:1008F000B0FA80FC00FA0CF050EA010404BF10BC0E
:10090000704749B1CCF1200421FA04F411FA0CF13A
:1009100018BF012121430843A3EB0C01CB1D4FEA73
:1009200000614FEA102042BF002010BC704700EB6E
:10093000C35010440029A4BF10BC7047401C49009C
:1009400008BF20F0010010BC704710B5141E73F1F1
:10095000000408DA401C41F1000192185B411A437F
:1009600001D120F0010010BD2DE9F04D92469B46CB
:1009700011B1B1FA81F202E0B0FA80F22032904671
:10098000FFF705FF04460F4640EA0A0041EA0B0163
:1009900053465A46084313D0114653EA010019D072
:1009A000C8F140025046FFF769FC05460E46504626
:1009B00059464246FFF7EBFE084305D0012004E00C
:1009C00020463946BDE8F08D0020054346EAE07632
:1009D0002C4337430A986305E40AA0EB0800002281
:1009E000FD0A44EA47540A3002D500200146E9E7EF
:1009F000010510196941DDE9084500196941BDE8A3
:100A0000F04DA2E72DE9F04D00231A461B1A8A414A
:100A100003DB00200146BDE8F08DC1F30A52C1F3AB
:100A2000130141F480154FF0000BD10702D10018DB
:100A30006D41521E0027044640F2FF11384601EB7B
:100A4000620A3E468046024600204FF48011FFF7BE
:100A500015FCC2197141BB1846EB0100B4EB030C45
:100A600075EB000C04D3E41A65EB000517460E463F
:100A7000241908F101006D4180463428E3DDF9199D
:100A800046EB0600091BA84103D24FF0FF32134684
:100A900001E0002213461BEB070046EB0A51BDE8BC
:100AA000F04DFFF752BFC1F30A52C1F3130140F2F8
:100AB000FF3341F480119A4202DA00200146704768
:100AC00040F233439A42A2F2334202DC5242FFF731
:100AD000D5BBFFF75CBE000030B5041E71F1000409
:100AE00004DB4FF00044404264EB0101141E73F13B
:100AF000000405DB1C464FF00043524263EB040345
:100B0000994208BF904230BD064C074D06E0E068B0
:100B100040F0010394E8070098471034AC42F6D344
:100B2000FFF736FBD0BD0008F0BD00080048704755
:100B300044BD000810B50446FFF7F8FF0068005DEB
:100B400000F0010010BD00002DE9FF4F087883B0D0
:100B50009946FF2805D0491C2D2804D000240020E8
:100B600008E000200BE00124F9E700EB800003EB34
:100B70004000491C0B78FF2BF7D104B14042002301
:100B80000293147819461D462D2C01D02B2C04D12C
:100B9000521C2D2C13D000240294AA461478FF2C4A
:100BA0000FD00A25A3FB057801FB05814FF0000C4F
:100BB00003FB0C11521CE3194AEB0101EEE701247F
:100BC000EAE7814453EA010002D019F5C87F06DA4A
:100BD00003980021C0E9001107B0BDE8F08F00259F
:100BE000AE4E2F46DFF8B882184600F0DAF9CDE9AC
:100BF0000001B9F1000002DAC9F1000400E0044686
:100C00000023A74A1AEB030B42EB045A12E0E00759
:100C100007D02A46334638464146FFF71EFC0746B2
:100C200088462A46334610461946FFF716FC054605
:100C30000E466410002CEAD1DDE90001B9F1000F85
:100C40005A46534606DAFFF77AFC3A464346FFF720
:100C500076FC05E0FFF701FC3A464346FFF7FDFB53
:100C6000029A0AB181F00041039AC2E90001B3E798
:100C70002DE9FF4F1F468DB0D7E901464FF0FF38F1
:100C80002E2045464FF000090B90B9696D1C0E9857
:100C90008847396A824688470028F6D1BAF1FF3F73
:100CA0000AD024F4D064002E11DDBAF12B0F08D045
:100CB000BAF12D0F0BD102E0404611B08DE744F49C
:100CC0008064B9696D1C0E9888478246761E694615
:100CD000600501D52D2000E02B208DF8000001F1EA
:100CE000010B0DF1200809E0B9696D1C0E988847C9
:100CF00082460F9844F40074761E0560002E02DDD3
:100D0000BAF1300FF0D00B998A453ED144F08004FF
:100D100006E00F99681CA9F1010944F40074086009
:100D2000B9696D1C761E0E98884782463028F0D02F
:100D30002BE00B998A4505D1200603D444F08004AA
:100D4000761E18E0504608F089FF08B30DF1130134
:100D5000761E44F400748B4508D2AAF130000BF8DB
:100D6000010B200607D5A9F1010003E0200602D4FB
:100D700009F101008146A00502D50F99681C0860A1
:100D8000B9696D1C0E9888478246002ED1DC53E06D
:100D9000002E51DDBAF1650F02D0BAF1450F4BD1EB
:100DA000A00549D5B9696D1C24F44074761E0E98CF
:100DB00088478246002E0CDD2B2804D0BAF12D0F77
:100DC00007D144F48074B9696D1C0E988847824637
:100DD000761EE00501D52D2100E02B2108F8011B2E
:100DE000CDF82C8021E00DF12901761E44F4007429
:100DF00088450CD2AAF1300010F0FF0088F80000FE
:100E000002D10B99884509D908F1010806E0E005EF
:100E100001D5244801E042F20F708146B9696D1C8A
:100E20000E98884782460F980560002E04DD5046D4
:100E300008F014FF0028D6D1F9690E988847FF20E2
:100E40008BF8000088F800000020069007904B46C1
:100E50006A4608A906A8FFF777FEA00502D46FF03E
:100E600001002AE714F0240F0AD0E00714D1DDE9CD
:100E700006123868031D3B600068C0E900120BE0F1
:100E8000DDE90601FFF720FC0146E00704D13868E0
:100E9000021D3A600068016028460EE70000144019
:100EA0000000F03FF1D8FFFF426842B1016811F83D
:100EB000013B23B1521EC0E90012184670470121C0
:100EC000C160881E704742685AB1C368016843B95F
:100ED00083688B4205D0491E521CC0E900120020D5
:100EE00070474FF0FF3070472DE9F05F8246007881
:100EF000002715468B460AF10104B946302801D077
:100F00009DB113E014F8010B0127782803D058286D
:100F100001D045B10AE00DB1102D07D100271025F1
:100F200014F8010B02E0082500E00A250026B0466F
:100F30000EE005FB080005FB06F1012701EB10465A
:100F40001FFA80F8B6F5803F00D3B94614F8010BBC
:100F5000294600F018F80028EBDABBF1000F05D0A5
:100F60000FB1641E00E05446CBF80040B9F1000F09
:100F700006D008F033FB02210160C81EBDE8F09FD7
:100F800048EA0640FAE73A2800D2303820F020023A
:100F9000412A01D3A2F13700884201D34FF0FF303C
:100FA00070470EB540F2334202920022CDE9002292
:100FB0001346FFF7D9FC03B000BD70B58C1810F8CC
:100FC000015B15F0070301D110F8013B2A1106D18E
:100FD00010F8012B03E010F8016B01F8016B5B1EA8
:100FE000F9D12B0705D40023521E0DD401F8013B83
:100FF000FAE710F8013BCB1A921C03E013F8015BEF
:1010000001F8015B521EF9D5A142D8D3002070BD72
:10101000F0EE400A17481849096800EB810090ED8E
:10102000000A164890ED001A31EE400A80ED000AE1
:1010300090ED000A30EE200A80ED000A0D480E49BE
:10104000096800EB8100C0ED000A0B480068C72862
:1010500003D100200849086004E007480068401CEC
:1010600005490860054890ED001ADFED051A81EE8C
:10107000210A7047D0030020D8000020DC000020A7
:1010800000004843F0EE400A0146012902D1294AF6
:10109000107002E00220274A1070264800780128CC
:1010A00012D100200CE0244A02EB8002C2ED000ABB
:1010B0009FED220A20EE800A214A82ED000A401CA0
:1010C000B0F5FA7FEFDD2CE01A480078022828D12D
:1010D00019481C4A126800EB820090ED000A18487B
:1010E00090ED001A31EE400A80ED000A90ED000A02
:1010F00030EE200A80ED000A0F48124A126800EB19
:101100008200C0ED000A0F480068B0F5FA7F03D1F5
:1011100000200C4A106004E00A480068401C094A9C
:101120001060074890ED001ADFED041A81EE210AE5
:1011300070470000D0000020F00600200080FA4335
:10114000E4000020E0000020F0EE400A17481849B3
:10115000096800EB810090ED000A164890ED001A36
:1011600031EE400A80ED000A90ED000A30EE200AD0
:1011700080ED000A0D480E49096800EB8100C0EDC2
:10118000000A0B480068952803D100200849086030
:1011900004E007480068401C05490860054890EDD8
:1011A000001ADFED051A81EE210A70478C0F00202E
:1011B000F0000020F400002000001643F0EE400A8A
:1011C00017481849096800EB810090ED000A16489D
:1011D00090ED001A31EE400A80ED000A90ED000A11
:1011E00030EE200A80ED000A0D480E49096800EB38
:1011F0008100C0ED000A0B480068952803D100204B
:101200000849086004E007480068401C0549086078
:10121000054890ED001ADFED051A81EE210A7047AE
:10122000E4110020F8000020FC000020000016431C
:10123000F0EE400A17481849096800EB810090ED6C
:10124000000A164890ED001A31EE400A80ED000ABF
:1012500090ED000A30EE200A80ED000A0D480E499C
:10126000096800EB8100C0ED000A0B480068952872
:1012700003D100200849086004E007480068401CCA
:1012800005490860054890ED001ADFED051A81EE6A
:10129000210A70473C1400200001002004010020B6
:1012A0000000164310B5044622464FF4004117488B
:1012B00000F0FEFC22464FF48041144800F0F8FC98
:1012C00022464FF40051114800F0F2FC22464FF440
:1012D00080510E4800F0ECFC22464FF400610B48B0
:1012E00000F0E6FC22464FF48061084800F0E0FC84
:1012F00022464FF40071054800F0DAFC22464FF414
:101300008071024800F0D4FC10BD000000100048BD
:1013100000F082F800F0EEF809F05AFA2F4803F0D6
:1013200093FC0A2009F0F9FA00BF032000F0DAFA72
:1013300009F060F92A4880ED000A2A4890ED000A79
:101340002948D0ED000A20EE200A2648D0ED000AF8
:10135000B7EE001A71EE600A214890ED001A00EE17
:10136000810A214880ED000A204890ED000A1E48BD
:10137000D0ED000A30EEC00A1D4880ED000A1D487D
:10138000007818B11B480078012805D1184890ED65
:10139000000A164809F006F81548D0ED000AF5EEE7
:1013A000C00AF1EE10FA02DBD0ED000A04E01048AA
:1013B000D0ED000AF1EE600AB0EE600A0B4809F0C9
:1013C000A7FF0A4809F05CFE0A2009F0A6FA4FF4CC
:1013D0000061094800F068FCA7E7000084180020BD
:1013E000380000200800002058000020A40300203E
:1013F00054000020240000200010004810B50446CE
:1014000004480068806A20B102480068816A20466A
:10141000884710BDCC0100203EB5012500242C4991
:101420004868804733284FD129482A49086000205E
:101430008DF8040050208DF8050007208DF8060077
:1014400020208DF80A0000208DF808008DF8090092
:1014500008208DF807009DF804009DF8051008434A
:101460009DF80610084304439DF808009DF80910F4
:1014700008439DF80A1008439DF80710084344EA02
:1014800000241448006801682046884780208DF8B1
:10149000000010208DF8010000208DF802008DF86A
:1014A00003009DF800009DF8011008439DF802100C
:1014B00008439DF8031040EA01042046054A1268DB
:1014C000116A8847002500E0012528463EBD00003E
:1014D00094010020CC01002010B5044604480068A7
:1014E000806A20B102480068816A2046884710BDA2
:1014F000D00100203EB5012500242A4948688047D4
:10150000D42804D0274948688047D52847D12548A2
:101510002549086008208DF8040000208DF805009A
:1015200007208DF8060030208DF8070000208DF888
:1015300008008DF809008DF80A009DF804009DF858
:10154000051008439DF8061008439DF8071040EA6F
:1015500001049DF808009DF8091008439DF80A1041
:10156000084344EA00241048006801682046884780
:1015700000208DF800008DF801009DF800009DF816
:10158000011040EA01042046074A1268116A8847A0
:1015900005480068416A10208847002500E00125C1
:1015A00028463EBD68010020D001002008E04FF42D
:1015B0000051044800F078FB4FF47A7000F0ECF929
:1015C000F5E70000001000480346042B15D007DCA7
:1015D0007BB1012B0ED0022B0DD0032B12D10BE0CF
:1015E000202B0BD0212B0AD0222B09D0232B09D161
:1015F00007E008E007E006E005E004E003E002E0C1
:1016000001E000E000BF00BF0020704700207047ED
:1016100010B500220449054806F0A6FF0449034816
:1016200006F09BFF002010BDE8270020141A0020C0
:101630000024002070B504460E4621460C4806F0F2
:101640008CFF0B4806F065FF0AA10F4807F07EFFEC
:101650000D48FEF747FE85B229460B4800F016F804
:1016600030224FF47A710848FEF72AFE002070BD40
:10167000141A00202D2D2D2D2D2D2D2D2D2D2D2D00
:101680002D200D0A00000000E82700202DE9F04180
:1016900004460D4600260A48D0F81872D7F81402FE
:1016A00010B10120BDE8F0812A462146044806F029
:1016B0005BFF034806F0AAFF06463046F2E700004B
:1016C000141A002000B587B000BF1148406940F4EB
:1016D00000100F4948610846406900F4001001906D
:1016E00000BF00BF302002900A48039003200590FD
:1016F0000020049002A9084800F0F0F900221146E9
:101700000A2000F087FE0A2000F074FE07B000BD3A
:1017100000100240000011100010004800B587B012
:1017200000BF1E48406940F400101C49486108464B
:10173000406900F40010019000BF00BF00BF0846E0
:10174000406940F4001048610846406900F4001008
:10175000019000BF00BF042002900020039004907D
:101760000320059002A90E4800F0B8F900221146A6
:10177000082000F04FFE082000F03CFE30200290D0
:1017800000200390032005900020049002A9044843
:1017900000F0A4F904F0FCF807B000BD001002400E
:1017A0000010004870B504460D462946204604F056
:1017B0003DF970BD70B504460D46164632462946C1
:1017C000204604F053F970BD7047000000B587B0A3
:1017D00000BF1E48406940F400101C49486108469B
:1017E000406900F40010019000BF00BF0820029083
:1017F00001200390002004900320059002A91448C2
:1018000000F06CF901220821114800F051FA00BFE4
:101810000E48406940F400100C4948610846406990
:1018200000F40010019000BF00BF062002900020CD
:101830000390032005900020049002A9044800F0C2
:101840004DF905F0FBFC07B000BD000000100240A0
:101850000010004870B506460C461546012D02DD05
:1018600044F0C00401E044F08004002208210B4849
:1018700000F01EFA204605F03DFD06E0002005F0D0
:1018800039FD3070681E85B2761C002DF6DC012211
:101890000821024800F00CFA70BD0000001000485A
:1018A00070B505460E461446012C01DD46F0400693
:1018B000002208210A4800F0FBF9304605F01AFD25
:1018C00005E0287805F016FD601E84B26D1C012C21
:1018D000F7DA01220821024800F0EAF970BD0000A1
:1018E0000010004810B5044600224FF40061134870
:1018F00000F0DEF900224FF40051104800F0D8F952
:1019000000224FF400410D4800F0D2F9012C05D11E
:101910000122D102094800F0CBF90EE0022C05D1DA
:1019200001225103054800F0C3F906E0032C04D15D
:101930000122D103014800F0BBF910BD00040048AA
:1019400070B50446002594F82100022803D0042035
:10195000A06301251EE02068006820F00E002168C9
:1019600008602068006820F001002168086094F891
:10197000401001208840E16B4860012084F821007C
:1019800000BF002084F8200000BF606B10B120462B
:10199000616B8847284670BD70B5044600F08EF92B
:1019A00006462546681C10B104480078054400BF6F
:1019B00000F084F9801BA842FAD370BD60010020BA
:1019C000F0B50B4600210022002475E001258D4072
:1019D00005EA0302002A6ED005684F000326BE40C8
:1019E000B5430560CE0800F1200555F826504E0796
:1019F000F70E0F26BE40B543CF0800F1200646F88B
:101A0000275085684F000326BE40B5438560466871
:101A100001258D40AE434660C5684F000326BE4099
:101A2000B543C560274D8E0855F826408D072E0F0B
:101A30000F25B5402C40B0F1904F01D1002514E0A6
:101A4000214DA84201D101250FE0204DA84201D12E
:101A500002250AE01E4DA84201D1032505E01D4DD7
:101A6000A84201D1042500E005258E07360FB540B8
:101A7000A54220D18D072E0F0F2505FA06F4114D32
:101A80008E0855F82660A6438F0845F82760124D4A
:101A90002D689543104E3560351D2D689543361DD4
:101AA0003560351D2D689543361D3560351D2D6813
:101AB0009543361D3560491C23FA01F5002D85D16B
:101AC000F0BD000008000140000400480008004884
:101AD000000C0048001000480004014078B503469F
:101AE000002200240020CBE0012696400D6805EA84
:101AF0000604002C72D04D68022D02D04D68122DC4
:101B000013D1D60803F1200555F826005507EE0E2F
:101B10000F25B540A8435607F60E0D69B54028437A
:101B2000D60803F1200545F826001868560003255D
:101B3000B540A8430D7905F003055600B54028438C
:101B400018604D68012D08D04D68022D05D04D68F4
:101B5000112D02D04D68122D13D19868560003251F
:101B6000B540A8435600CD68B540284398605868F2
:101B700001259540A8430D79C5F3001595402843EC
:101B80005860D86856000325B540A84356008D68B4
:101B9000B5402843D8604D6805F08055B5F1805FA9
:101BA0006DD100BF394DAD6945F00105374EB561C6
:101BB0003546AD6905F00105009500BF00BF4FEA4D
:101BC000B635960855F8260095072E0F0F25B54017
:101BD000A843B3F1904F02D1002515E04FE02C4D02
:101BE000AB4201D101250FE02A4DAB4201D10225C4
:101BF0000AE0294DAB4201D1032505E0274DAB4258
:101C000001D1042500E005259607360FB54028438D
:101C1000234D960845F82600224D2868A0434D68BC
:101C200005F48035B5F5803F00D120431D4D286077
:101C30002D1D2868A0434D6805F40035B5F5003F1B
:101C400000D12043174D2D1D28602D1D2868A0436D
:101C50004D6805F48015B5F5801F00D12043114D66
:101C6000083528602D1D2868A0434D6805F400152F
:101C7000B5F5001F00D120430A4D0C352860521CD9
:101C80000D68D540002D7FF42FAF78BD00100240C5
:101C90000004004800080048000C004800100048FC
:101CA000080001400004014042694A404261704717
:101CB0000AB1816100E0816270470000014800685C
:101CC0007047000058010020024692F84100202889
:101CD0002DD100BF92F84000012801D102207047A9
:101CE000012082F8400000BF242082F841001068E3
:101CF000006820F00100136818601068006820F484
:101D000080501368186010680068084313681860F2
:101D10001068006840F0010013681860202082F805
:101D2000410000BF002082F8400000BFD7E702203A
:101D3000D5E710B502460B46002192F84100202855
:101D40002AD100BF92F84000012801D1022010BD25
:101D5000012082F8400000BF242082F84100106872
:101D6000006820F00100146820601068016821F408
:101D7000706141EA0321106801601068006840F05A
:101D8000010014682060202082F8410000BF00207C
:101D900082F8400000BFDAE70220D8E710B5044619
:101DA0000CB9012010BD242084F84100206800688F
:101DB00020F0010021680860204600F02DFA002084
:101DC000606484F84100206384F8420000BF84F816
:101DD000400000BF00BFE5E7014691F841007047B1
:101DE00010B504460CB9012010BD94F8410028B983
:101DF000002084F84000204600F026FA242084F8D1
:101E000041002068006820F00100216808606068D7
:101E100020F07060216808612068806820F400402C
:101E200021688860E068012805D1A06840F400407E
:101E30002168886004E0A06840F40440216888605C
:101E4000E068022802D1800221684860206840686A
:101E500013490843216848602068C06820F40040A6
:101E60002168C860D4E904010843A16940EA01205F
:101E70002168C860D4E90701084321680860206828
:101E8000006840F0010021680860002060642020A4
:101E900084F841000020206384F8420000BFA3E7DB
:101EA000008000022DE9FC5F0446894692469B466D
:101EB000DDE90C780E9E002594F8410020287DD1A4
:101EC00017B1B8F1000F02D10120BDE8FC9F00BF9F
:101ED00094F84000012801D10220F6E7012084F89F
:101EE000400000BFFFF7EAFE054619230122D10397
:101EF0002046009503F0BEFC08B10320E5E7222050
:101F000084F84100402084F8420000206064676249
:101F1000A4F82A8060635B46524649462046CDE9D4
:101F2000006503F0FDFB80B1606C042806D100BFA2
:101F3000002084F8400000BF0120C6E700BF002059
:101F400084F8400000BF0320BFE7608DFF280CD954
:101F5000FF2020854048009094F828204FF080739F
:101F60004946204603F06CFC0BE0608D20853A4822
:101F7000009094F828204FF000734946204603F063
:101F80005FFC00BF3346002204212046009503F089
:101F900071FC08B1032098E72068406AC1B2626A08
:101FA000501C60621170208D401E2085608D401E87
:101FB0006085208D48BB608D38B300E049E0334632
:101FC000002280212046009503F054FC08B1032034
:101FD0007BE7608DFF280CD9FF2020850020009032
:101FE00094F828204FF080734946204603F028FCDF
:101FF0000BE0608D20850020009094F828204FF0A1
:1020000000734946204603F01BFC608D0028B9D1BF
:102010002A463146204603F058FC30B1606C042853
:1020200001D1012051E703204FE720202168C8613A
:10203000206840680949084021684860202084F8E9
:102040004100002084F8420000BF84F8400000BF37
:102050003BE7022039E700000024008000E800FE92
:102060002DE9FC5F0446894692469B46DDE90C78E3
:102070000E9E002594F8410020286ED117B1B8F1CA
:10208000000F02D10120BDE8FC9F00BF94F8400082
:10209000012801D10220F6E7012084F8400000BFAA
:1020A000FFF70CFE054619230122D10320460095B7
:1020B00003F0E0FB08B10320E5E7212084F84100AC
:1020C000402084F84200002060646762A4F82A80FF
:1020D00060635B46524649462046CDE9006503F001
:1020E00067FB80B1606C042806D100BF002084F833
:1020F000400000BF0120C6E700BF002084F8400078
:1021000000BF0320BFE7608DFF280CD9FF2020858A
:102110000020009094F828204FF080734946204614
:1021200003F08EFB0BE0608D20850020009094F87A
:1021300028204FF000734946204603F081FB00BF82
:102140002A463146204603F0EBFB38B1606C042888
:1021500001D1012097E7032095E759E0616A481C07
:102160006062087821688862608D401E6085208DDD
:10217000401E2085208D38BB608D28B33346002259
:1021800080212046009503F075FB08B103207AE713
:10219000608DFF280CD9FF2020850020009094F846
:1021A00028204FF080734946204603F049FB0BE09E
:1021B000608D20850020009094F828204FF0007357
:1021C0004946204603F03CFB608D0028B8D12A46E2
:1021D0003146204603F079FB30B1606C042801D110
:1021E000012050E703204EE720202168C8612068C5
:1021F00040680849084021684860202084F8410070
:10220000002084F8420000BF84F8400000BF3AE795
:10221000022038E700E800FE10B5044607492068B0
:10222000884209D10648C06920F400100449C861F9
:10223000C0210448FFF7C4FB10BD0000005400405B
:10224000001002400004004810B586B00446114951
:10225000206888421BD1C0200190122002900120EA
:102260000390032004900420059001A90A48FFF779
:1022700035FC00BF0948C06940F400100749C86137
:102280000846C06900F40010009000BF00BF06B00F
:1022900010BD00000054004000040048001002403F
:1022A00003480068034909780844014908607047F9
:1022B000580100206001002010B50848006840F077
:1022C000100006490860032000F0E2F8002000F04A
:1022D00007F800F047F8002010BD00000020024081
:1022E00070B588B0044600250026002221461C2037
:1022F00000F090F81C2000F07DF800BF1648C0697F
:1023000040F001001449C8610846C06900F00100AE
:10231000019000BF00BF02A903A801F0C3FB01F0B8
:10232000E9FB45000D48B5FBF0F0461E4FF080403C
:102330000B49086040F2E7310948C160466000215E
:102340000161816002F01CFC20B9054802F07CFCB0
:1023500008B070BD0120FBE70010024040420F00B2
:10236000D02B002008B500BF2148806940F0010053
:102370001F4988610846806900F00100009000BF95
:1023800000BF00BF0846C06940F08050C8610846E1
:10239000C06900F08050009000BF00BF032000F033
:1023A00077F8002211466FF00B0000F033F800229E
:1023B00011466FF00A0000F02DF8002211466FF070
:1023C000090000F027F800221146501F00F022F803
:1023D00000221146101F00F01DF800220F21901E50
:1023E00000F018F800220F21501E00F013F808BD6D
:1023F0000010024001460846002809DB00F01F03D8
:1024000001229A4043099B0003F1E023C3F8002115
:1024100000BF70472DE9F05F80460D461646002745
:1024200007F0C0F8074639462A46334601F0070050
:10243000C0F1070ABAF1040F02D94FF0040A01E013
:10244000C0F1070AD14600F1040ABAF1070F02D21F
:102450004FF0000A01E0A0F1030AD4464FF0010A50
:102460000AFA09FAAAF1010A0AEA020A0AFA0CFAB5
:102470004FF0010B0BFA0CFBABF1010B0BEA030B5A
:102480004AEA0B042146404607F094F8BDE8F09F65
:1024900000BF00F00702064B19684FF6FF03194012
:1024A000044B0B4343EA0221014B196000BF704704
:1024B0000CED00E00000FA0570B505460C4604F08E
:1024C0008000802808D104F07F00C0EBC00605F131
:1024D000280000EB860105E0C4EBC40605F5E670B4
:1024E00000EB86011AB9002088728B8004E001207D
:1024F0008872CB80180C0881002070BD704770B5C1
:1025000004460D46C5EBC50304F1280101EB830128
:102510000A692946D4F8A40306F03AFB70BD70B5E9
:1025200004460D46C5EBC50304F5E67101EB8301D6
:102530000A692946D4F8A40306F097FB70BD70B56C
:1025400002460B4603F08000802808D103F07F008C
:10255000C0EBC00402F1280000EB840107E003F0A7
:102560007F00C0EBC00402F5E67000EB840103F0CD
:102570007F00087003F08000C009487000BF92F827
:102580007003012801D1022070BD012082F8700380
:1025900000BF887A002857D1487850B30C7864007F
:1025A000106830F8140000F0400078B10C78640036
:1025B000106830F8140048F68F74204048F2C004C8
:1025C00020430D786D00146824F815000D786D0017
:1025D000146834F8154048F6BF7504EA050040F465
:1025E000004444F080040E787600156825F8164003
:1025F000F7E00C786400106830F8140000F48040B4
:1026000078B10C786400106830F8140048F68F74C4
:1026100020404CF2800420430D786D00146824F8AB
:1026200015000D786D00146834F815404BF68F7561
:1026300004EA050040F4004444F080040E7876007B
:10264000156825F81640CCE04878002864D10C784D
:102650006400106830F8140000F4804078B10C7801
:102660006400106830F8140048F68F7420404CF273
:10267000800420430D786D00146824F815000C7850
:102680006400106830F8140000F0400078B10C7855
:102690006400106830F8140048F68F74204048F247
:1026A000C00420430D786D00146824F815000C78E0
:1026B0006400106830F8140048F68F74204048F227
:1026C000C00420430D786D00146824F815000D78BF
:1026D0006D00146834F815404BF68F7504EA050058
:1026E00040F4004444F080040E787600156825F824
:1026F00016400D786D00146834F8154048F6BF7523
:1027000004EA050040F4004444F080040E787600AA
:10271000156825F8164064E00C786400106830F8FD
:10272000140000F4804078B10C786400106830F830
:10273000140048F68F7420404CF2800420430D783A
:102740006D00146824F815000C786400106830F8E7
:10275000140000F0400078B10C786400106830F884
:10276000140048F68F74204048F2C00420430D78CE
:102770006D00146824F815000C786400106830F8B7
:10278000140048F68F7420404CF2800420430D78EA
:102790006D00146824F815000D786D00146834F885
:1027A000154048F6BF7504EA050040F4004444F0C3
:1027B00080040E787600156825F816400D786D00B7
:1027C000146834F815404BF68F7504EA050040F4A0
:1027D000004444F080040E787600156825F8164011
:1027E00000BF00BF002082F8700300BF00BFCBE62F
:1027F00070B502460B4603F08000802808D103F034
:102800007F00C0EBC00402F1280000EB840105E06A
:10281000C3EBC30402F5E67000EB8401002088706E
:1028200003F07F000870C3F3C010487000BF92F837
:102830007003012801D1022070BD012082F87003CD
:1028400000BF487870B30C786400106830F814004A
:1028500000F0400078B10C786400106830F8140083
:1028600048F68F74204048F2C00420430D786D0074
:10287000146824F815000D786D00146834F81540BC
:1028800048F6BF7504EA050080F0100080F02000D3
:1028900040F4004444F080040E787600156825F872
:1028A00016402EE00C786400106830F8140000F434
:1028B000804078B10C786400106830F8140048F655
:1028C0008F7420404CF2800420430D786D00146812
:1028D00024F815000D786D00146834F815404BF697
:1028E0008F7504EA050080F4805080F4005040F4B5
:1028F000004444F080040E787600156825F81640F0
:1029000000BF00BF002082F8700300BF00BF93E744
:10291000024601F07F00C0EBC00302F5E67000EB59
:102920008300008B80B270472DE9F04104460D46CC
:10293000002705F08000802808D105F07F00C0EB5B
:10294000C00604F1280000EB860107E005F07F00D7
:10295000C0EBC00604F5E67000EB860105F07F00D1
:10296000087005F08000C0094870CA60CB7000BFD5
:1029700094F87003012802D10220BDE8F081012003
:1029800084F8700300BFC87830B1012838D002281D
:1029900014D0032846D121E00E787600206830F864
:1029A000160048F68F16304040F4007691F800C0CB
:1029B0004FEA4C0C206820F81C6034E00E7876005A
:1029C000206830F8160048F68F16304091F800C0A5
:1029D0004FEA4C0C266826F81C0024E00E7876009E
:1029E000206830F8160048F68F16304040F4C0607A
:1029F00091F800C04FEA4C0C266826F81C0012E043
:102A00000E787600206830F8160048F68F163040B1
:102A100040F4806691F800C04FEA4C0C206820F822
:102A20001C6000E000BF00BF0E787600206830F820
:102A3000160048F68F76304048F2800630430E7814
:102A4000304391F800C04FEA4C0C266826F81C0071
:102A5000887A00287ED14878F0B3888840104FEA01
:102A6000400C2068B0F85060087806EBC00026687B
:102A700006F5806626F810C00E787600206830F8DB
:102A8000160000F0400088B10E787600206830F81B
:102A9000160048F68F76304048F2C006304391F871
:102AA00000C04FEA4C0C266826F81C0091F800C0C4
:102AB0004FEA4C0C266836F81C6048F6BF7C06EAE4
:102AC0000C0080F0200040F4004646F0800691F8AB
:102AD00000804FEA480800E004E0D4F800C02CF879
:102AE0001860ABE1888840104FEA400C2068B0F8CD
:102AF0005060087806EBC000001D266806F5806669
:102B000026F810C02068B0F850C008780CEBC00060
:102B1000801DD4F800C00CF5806C0CEB4006D1F899
:102B20000CC0BCF13E0F19D9D1F80CC0CCF34F103A
:102B300091F80CC00CF01F0CBCF1000F03D1A0F1F8
:102B4000010C1FFA8CF04FF6FF7C0CEA802C4CF441
:102B5000004C00E04DE0A6F800C014E0D1F80CC035
:102B6000CCF34F0091F80CC00CF0010CBCF1000F3D
:102B700003D000F1010C1FFA8CF04FF6FF7C0CEA39
:102B8000802CA6F800C00E787600206830F8160079
:102B900000F4804088B10E787600206830F8160086
:102BA00048F68F7630404CF28006304391F800C0F2
:102BB0004FEA4C0C266826F81C0091F800C04FEA3A
:102BC0004C0C266836F81C604BF68F7C06EA0C002D
:102BD00080F4805080F4005040F4004646F08006B7
:102BE00091F800804FEA4808D4F800C02CF818602B
:102BF00024E10E787600206830F8160040F48070EA
:102C000048F68F76304048F28006304391F800C095
:102C10004FEA4C0C266826F81C00C88840104FEA82
:102C2000400C2068B0F85060087806EBC0002668B9
:102C300006F5806626F810C0088940104FEA400C5F
:102C40002068B0F85060087806EBC000001D2668C8
:102C500006F5806626F810C04878002879D10E78ED
:102C60007600206830F8160000F4804088B10E78B5
:102C70007600206830F8160048F68F7630404CF227
:102C80008006304391F800C04FEA4C0C266826F8C5
:102C90001C000E787600206830F8160000F0400026
:102CA00088B10E787600206830F8160048F68F76E6
:102CB000304048F2C006304391F800C04FEA4C0C57
:102CC000266826F81C000E787600206830F816007A
:102CD00048F68F76304048F2C006304391F800C085
:102CE0004FEA4C0C266826F81C0091F800C04FEA09
:102CF0004C0C266836F81C604BF68F7C06EA0C00FC
:102D000080F4805080F4005040F4004646F0800685
:102D100091F800804FEA4808D4F800C02CF81860F9
:102D200091F800C04FEA4C0C266836F81C6048F653
:102D3000BF7C06EA0C0040F4004646F0800691F89D
:102D400000804FEA4808D4F800C02CF8186075E0FD
:102D5000FFE70E787600206830F8160000F4804017
:102D600088B10E787600206830F8160048F68F7625
:102D700030404CF28006304391F800C04FEA4C0CD2
:102D8000266826F81C000E787600206830F81600B9
:102D900000F0400088B10E787600206830F8160008
:102DA00048F68F76304048F2C006304391F800C0B4
:102DB0004FEA4C0C266826F81C000E787600206836
:102DC00030F8160048F68F7630404CF280063043DB
:102DD00091F800C04FEA4C0C266826F81C0091F8C8
:102DE00000C04FEA4C0C266836F81C6048F6BF7CE1
:102DF00006EA0C0040F4004646F0800691F8008098
:102E00004FEA4808D4F800C02CF8186091F800C0C8
:102E10004FEA4C0C266836F81C604BF68F7C06EAAD
:102E20000C0040F4004646F0800691F800804FEA1E
:102E30004808D4F800C02CF8186000BF00BF00207C
:102E400084F8700300BF384697E5F0B504460D4698
:102E500005F07F00C0EBC00604F5E67000EB8601CC
:102E60000A614B6100208861487005F07F0008709E
:102E7000CE684869B04204D9CB684869C01A486135
:102E800002E04B6900204861887A48BB2068B0F8AE
:102E90005070087807EBC000801D276807F5806731
:102EA00007EB40063E2B0ED9C3F34F1003F01F076C
:102EB0000FB9471EB8B24FF6FF7707EA802747F4ED
:102EC000004737800BE0C3F34F0003F001070FB159
:102ED000471CB8B24FF6FF7707EA802737803AE001
:102EE000487848BB2068B0F85070087807EBC000FD
:102EF000801D276807F5806707EB40063E2B0ED93B
:102F0000C3F34F1003F01F070FB9471EB8B24FF6B7
:102F1000FF7707EA802747F4004737800BE0C3F3C9
:102F20004F0003F001070FB1471CB8B24FF6FF770F
:102F300007EA802737800EE0487801280BD1206807
:102F4000B0F85060087806EBC000801D266806F5D2
:102F5000806626F810300F787F00266836F81760F4
:102F60004BF68F7706EA070080F4805080F400501B
:102F700040F4004646F0800691F800C04FEA4C0C41
:102F8000276827F81C600020F0BD70B502460B468C
:102F900000BF92F87003012801D1022070BD01200A
:102FA00082F8700300BF03F08000802808D103F08E
:102FB0007F00C0EBC00402F1280000EB840105E0B3
:102FC000C3EBC30402F5E67000EB840101208870B6
:102FD00003F07F000870C3F3C01048700878B0B9E0
:102FE0000D786D00146834F815404BF6BF7504EA8F
:102FF000050080F4805080F0100040F4004444F05C
:1030000080040E787600156825F816402BE0487885
:10301000A0B10D786D00146834F8154048F6BF75FE
:1030200004EA050080F0100040F4004444F08004FD
:103030000E787600156825F8164014E00D786D00BE
:10304000146834F815404BF68F7504EA050080F4D7
:10305000805040F4004444F080040E7876001568F7
:1030600025F8164000BF00BF002082F8700300BFA3
:1030700000BF93E72DE9F04705460F4690461E46F0
:103080004FF0000907F07F00C0EBC00105F12800F8
:1030900000EB8104C4F8108066610020A06101206B
:1030A000607007F07F002070E1686069884204D991
:1030B000E6686069801B606102E06669002060610B
:1030C000A07A90B9B3B2A2882169286803F0B0FF52
:1030D0002868B0F85010207801EBC000801C2968E7
:1030E00001F5806121F8106039E0217849002868F5
:1030F00030F8110000F04000402802D1B4F80890E8
:1031000001E0B4F80690B3B221694A46286803F09A
:103110008FFF607880B921784900286830F8110065
:1031200048F68F71084048F2C001084322785200E7
:10313000296821F8120012E0607801280FD1217867
:103140004900286830F8110048F68F7108404CF2A9
:103150008001084322785200296821F81200227861
:103160005200296831F8121048F6BF7201EA0200D5
:1031700080F0100080F0200040F4004141F0800118
:1031800023785B002A6822F813100020BDE8F0873E
:1031900010B504462068B0F8440000F40040B0F5D3
:1031A000004F02D1204603F0F4FC2068B0F8440040
:1031B00000F48060B0F5806F0BD14FF6FF302168CE
:1031C000A1F84400204600F043F90021204600F019
:1031D00062F92068B0F8440000F48040B0F5804FF8
:1031E00004D14BF6FF702168A1F844002068B0F8C4
:1031F000440000F40050B0F5005F04D14DF6FF70BC
:103200002168A1F844002068B0F8440000F4805020
:10321000B0F5805F19D12068B0F840004FF6FB711F
:1032200008402168A1F840002068B0F840004FF63F
:10323000F77108402168A1F84000204600F01DF910
:103240004EF6FF702168A1F844002068B0F84400F1
:1032500000F40060B0F5006F1DD12068B0F84000A8
:1032600040F008002168A1F840004FF2FF7021688B
:10327000A1F844002068B0F8400040F00400216844
:10328000A1F840002068B0F84400C0F3003010B945
:10329000204600F02DF92068B0F8440000F40070DA
:1032A000B0F5007F07D14FF6FF502168A1F8440028
:1032B000204600F0E9F82068B0F8440000F480707F
:1032C000B0F5807F04D14FF6FF602168A1F844007B
:1032D00010BD70B50446002500260CB9012070BD54
:1032E00094F8710328B9002084F87003204600F098
:1032F0007BF8032084F87103002529E00121C5EB48
:10330000C50204F1280000EB82004170C5EBC50244
:1033100004F1280000F822500021C5EBC50200EBA3
:103320008200C170C5EBC50204F1280000EB8200E9
:10333000C160C5EBC50204F1280000EB8200016109
:10334000C5EBC50204F1280000EB820041616D1C51
:103350006068A842D2D8002528E00021C5EBC5024C
:1033600004F5E67000EB82004170C5EBC50204F580
:10337000E67000F82250C5EBC50200EB8200C17078
:10338000C5EBC50204F5E67000EB8200C160C5EB39
:10339000C50204F5E67000EB82000161C5EBC502D1
:1033A00004F5E67000EB820041616D1C6068A84284
:1033B000D3D801202168A1F8400000202168A1F89D
:1033C00040002168A1F844002168A1F850004FF4A2
:1033D0003F462068A0F84060002084F824000120C7
:1033E00084F8710300207AE710B586B004461649C8
:1033F0002068884225D14FF4C050019002200290ED
:1034000000200390032004900E20059001A94FF0A6
:103410009040FEF763FB00BF0C48C06940F4000019
:103420000A49C8610846C06900F40000009000BF66
:1034300000BF002205211420FEF7ECFF1420FEF748
:10344000D9FF06B010BD0000005C00400010024033
:1034500070B504460125A068022801D100BF01E033
:10346000012500BF00BF2946D4F8A40305F054FD90
:10347000D4F8A40305F016FD70BD10B50446D4F8C9
:10348000A40305F031FD10BD10B50446D4F8A40323
:1034900005F031FD10BD024600BF92F8700301280F
:1034A00001D102207047012082F8700300BF21B9CA
:1034B00080201368A3F84C0001E082F8241000BFBC
:1034C000002082F8700300BF00BFEBE710B5044690
:1034D00004F55D71D4F8A40305F044FD10BD10B5EA
:1034E000044601212046FFF709F8002010BD000026
:1034F00010B50446D4F8A40305F0ABFDA06928B1CB
:103500000348006840F006000149086010BD000053
:1035100010ED00E0F8B5044600260025206800F410
:103520008030B0F5803F75D10027B148C06900F008
:10353000805070B900BFAE48C06940F08050AC49BF
:10354000C8610846C06900F08050009000BF00BF0D
:103550000127A848006800F48070B0B9A548006849
:1035600040F48070A3490860FEF7A8FB064606E019
:10357000FEF7A4FB801B642801D90320F8BD9D48F9
:10358000006800F480700028F2D09948006A00F4C6
:103590004075002D6CD0A08800F44070A84267D020
:1035A0009348006A20F440750120010491FAA1F1CA
:1035B000B1FA81F1904A02EB8101C1F800040020C8
:1035C0004FF4803191FAA1F1B1FA81F102EB81015E
:1035D000C1F800048648056205F00100B8B3FEF7A3
:1035E0006DFB064608E0FEF769FB801B41F288315F
:1035F000884201D90320C1E74020022191FAA1F1BC
:10360000B1FA81F108430121B1EB601F03D1784881
:1036100000681FE03CE04020022191FAA1F1B1FADC
:1036200081F108430221B1EB601F02D17048006AAA
:1036300010E04020022191FAA1F1B1FA81F1084392
:103640000421B1EB601F03D16948406802E00FE03C
:103650006748406A4021022292FAA2F2B2FA82F24C
:10366000114301F01F020121914008400028BAD007
:103670005F48006A20F44070616808435C49086252
:10368000012F04D10846C06920F08050C86100BFF6
:10369000207800F0010038B15548006B20F003009D
:1036A000A168084352490863207800F0020002280C
:1036B00007D14F48006B20F44030E16808434C4983
:1036C0000863207800F00400042807D14848006B04
:1036D00020F440202169084345490863207800F020
:1036E0002000202807D14248006B20F01000E1693B
:1036F00008433F490863206800F40030B0F5003FFC
:1037000007D13B48406820F48000A16B084338494A
:103710004860207800F04000402807D13448006B12
:1037200020F02000216A084331490863207800F026
:103730000800082807D12E48006B20F4401061696A
:1037400008432B490863207800F01000102807D1A7
:103750002748006B20F44000A1690843244908630E
:10376000208800F40070B0F5007F07D12048406841
:1037700020F40000E16A08431D494860207800F009
:103780008000802807D11A48C06A20F4F870616A66
:1037900008431749C862208800F48070B0F5807F24
:1037A00007D11348C06A20F47850A16A0843104931
:1037B000C862208800F48050B0F5805F07D10C48C3
:1037C000006B20F48070216B08430949086320884E
:1037D00000F40050B0F5005F07D10548006B20F4FD
:1037E0000070616B0843024908630020C6E60000D0
:1037F00000100240007000400000424270B50446D4
:103800000D4600260CB9012070BDA248006800F0EA
:103810000700A8420ED29F48006820F00700284306
:103820009C4908600846006800F00700A84201D0E3
:103830000120E9E7207800F00200022807D196482D
:10384000406820F0F000A168084393494860207860
:1038500000F0010000287CD0606801283BD12020C6
:10386000010391FAA1F1B1FA81F108430121B1EB11
:10387000601F02D1884800681DE02020010391FAF2
:10388000A1F1B1FA81F108430221B1EB601F02D12D
:103890008148006A0FE02020010391FAA1F1B1FAFA
:1038A00081F108430421B1EB601F02D17A484068DE
:1038B00001E07948406A20210A0392FAA2F2B2FAA2
:1038C00082F2114301F01F020121914008400028BB
:1038D0007CD1012098E7606802283BD120200105B7
:1038E00091FAA1F1B1FA81F108430121B1EB601F16
:1038F00002D1694800681DE02020010591FAA1F17C
:10390000B1FA81F108430221B1EB601F02D1624894
:10391000006A0FE02020010591FAA1F1B1FA81F1CE
:1039200008430421B1EB601F02D15B48406801E00D
:103930005948406A20210A0592FAA2F2B2FA82F2AC
:10394000114301F01F02012191400840E8BB012012
:103950005AE758E02020022191FAA1F1B1FA81F151
:1039600008430121B1EB601F02D14B4800681DE004
:103970002020022191FAA1F1B1FA81F1084302213C
:10398000B1EB601F02D14448006A0FE02020022101
:1039900091FAA1F1B1FA81F108430421B1EB601F62
:1039A00002D13D48406801E03B48406A20210222A4
:1039B00092FAA2F2B2FA82F2114301F01F0201213F
:1039C0009140084008B901201EE7FFE732484068EF
:1039D00020F00300616808432F494860FEF76EF944
:1039E000064608E0FEF76AF9801B41F288318842FA
:1039F00001D9032008E72848406800F00C006168FE
:103A0000B0EB810FEED12348006800F00700A84218
:103A10000ED92048006820F0070028431D4908609F
:103A20000846006800F00700A84201D00120EBE63C
:103A3000207800F00400042807D11748406820F4DB
:103A4000E060E168084314494860207800F008000D
:103A5000082808D11048406820F46050216940EAE5
:103A6000C1000D49486000F071F80B49496801F048
:103A7000F001F02292FAA2F2B2FA82F2D140074AA1
:103A8000515CC840064908600020FEF729FC002070
:103A9000BAE60000002002400010024010BC0008FE
:103AA000640100200F2202600D4A526802F00302F6
:103AB00042600B4A526802F0F0028260084A526883
:103AC00002F4E062C260064A526802F46052D20810
:103AD0000261044A126802F007020A60704700009F
:103AE00000100240002002400148006870470000BA
:103AF0006401002000B5FFF7F7FF0749496801F4AA
:103B0000E0614FF4E06292FAA2F2B2FA82F2D1409E
:103B1000024A515CC84000BD0010024020BC0008B1
:103B200000B5FFF7E1FF0749496801F460514FF420
:103B3000605292FAA2F2B2FA82F2D140024A515C89
:103B4000C84000BD0010024020BC000870B5002134
:103B500000240022002300201A4D696801F00C05A2
:103B600065B3042D02D0082D27D101E0164827E0C7
:103B700001F470154FF4701696FAA6F6B6FA86F6AA
:103B8000F540124E735D0F4DED6A05F00F050F26DF
:103B900096FAA6F6B6FA86F6F5400D4E745D01F477
:103BA00080352DB1084DB5FBF4F505FB03F202E0BD
:103BB000084D03FB05F2104602E000BF024800BFBB
:103BC00000BF70BD0010024000127A00F0BB000878
:103BD00000BC000800093D00F8B504460CB90120FE
:103BE000F8BD207800F0010000287BD0FA4840683A
:103BF00000F00C0004280CD0F748406800F00C00DE
:103C0000082845D1F448406800F48030B0F5803F82
:103C10003ED12020010391FAA1F1B1FA81F10843CC
:103C20000121B1EB601F02D1EB4800681DE02020AC
:103C3000010391FAA1F1B1FA81F108430221B1EB3C
:103C4000601F02D1E448006A0FE02020010391FACE
:103C5000A1F1B1FA81F108430421B1EB601F02D157
:103C6000DD48406801E0DC48406A20210A0392FAFE
:103C7000A2F2B2FA82F2114301F01F020121914037
:103C800008400028B1D0606800282BD10120A7E7A8
:103C900000BF6068B0F5803F06D1CF48006840F4AF
:103CA0008030CD49086029E0606858B9CA4800688A
:103CB00020F48030C84908600846006820F480205D
:103CC00008601BE06068B0F5A02F0CD1C248006806
:103CD00040F48020C04908600846006840F4803005
:103CE00008600BE0A1E0BC48006820F48030BA49CD
:103CF00008600846006820F48020086000BFB648CD
:103D0000C06A20F00F00A1680843B349C862606828
:103D1000A0B3FDF7D3FF054606E0FDF7CFFF401B3C
:103D2000642801D903205BE72020010391FAA1F167
:103D3000B1FA81F108430121B1EB601F02D1A6481D
:103D400000681EE02020010391FAA1F1B1FA81F18F
:103D500008430221B1EB601F02D19F48006A10E0C6
:103D60002020010391FAA1F1B1FA81F10843042165
:103D7000B1EB601F03D19848406802E010E096481C
:103D8000406A20210A0392FAA2F2B2FA82F21143A7
:103D900001F01F020121914008400028BDD044E0FD
:103DA000FDF78CFF054606E0FDF788FF401B642801
:103DB00001D9032014E72020010391FAA1F1B1FAFF
:103DC00081F108430121B1EB601F02D182480068F4
:103DD0001DE02020010391FAA1F1B1FA81F108431D
:103DE0000221B1EB601F02D17B48006A0FE0202066
:103DF000010391FAA1F1B1FA81F108430421B1EB79
:103E0000601F02D17448406801E07348406A202175
:103E10000A0392FAA2F2B2FA82F2114301F01F02EF
:103E20000121914008400028BED1207800F0020016
:103E300002285CD16848406800F00C0050B1664828
:103E4000406800F00C00082852D16348406800F434
:103E50008030E8BB2020022191FAA1F1B1FA81F172
:103E600008430121B1EB601F02D15B4800681DE0EF
:103E70002020022191FAA1F1B1FA81F10843022137
:103E8000B1EB601F02D15448006A0FE020200221EC
:103E900091FAA1F1B1FA81F108430421B1EB601F5D
:103EA00002D14D48406801E04B48406A202102227F
:103EB00092FAA2F2B2FA82F2114301F01F0201213A
:103EC0009140084028B12069012802D0012087E6EE
:103ED0000EE04148006820F0F800F82292FAA2F2C1
:103EE000B2FA82F26169914008433B490860B1E04F
:103EF000206970B3012191FAA1F0B0FA80F0374A3D
:103F000042F82010FDF7DAFE054606E0FDF7D6FE82
:103F1000401B022801D9032062E62020022191FAE9
:103F2000A1F1B1FA81F108430121B1EB601F02D187
:103F3000294800681EE02020022191FAA1F1B1FA7F
:103F400081F108430221B1EB601F03D12248006ACE
:103F500010E02CE02020022191FAA1F1B1FA81F1C8
:103F600008430421B1EB601F02D11B48406801E007
:103F70001948406A2021022292FAA2F2B2FA82F291
:103F8000114301F01F020121914008400028BDD0DB
:103F90001148006820F0F800F82292FAA2F2B2FA72
:103FA00082F26169914008430B49086052E00020A9
:103FB000012191FAA1F1B1FA81F1084A42F82100F8
:103FC000FDF77CFE05460BE0FDF778FE401B02285E
:103FD00006D9032004E6000000100240000042421F
:103FE0002020022191FAA1F1B1FA81F108430121C7
:103FF000B1EB601F02D1FB4800681DE020200221C8
:1040000091FAA1F1B1FA81F108430221B1EB601FED
:1040100002D1F448006A0FE02020022191FAA1F1B8
:10402000B1FA81F108430421B1EB601F02D1ED48E0
:10403000406801E0EB48406A2021022292FAA2F295
:10404000B2FA82F2114301F01F02012191400840AF
:104050000028B9D1207800F00800082851D1A069C3
:1040600080B3012090FAA0F1B1FA81F1DE4A02EBAF
:104070008101C1F88004FDF721FE054606E0FDF749
:104080001DFE401B022801D90320A9E56020022162
:1040900091FAA1F1B1FA81F108430121B1EB601F5E
:1040A00002D1D04800681EE06020022191FAA1F1FF
:1040B000B1FA81F108430221B1EB601F03D1C94875
:1040C000006A10E01EE06020022191FAA1F1B1FA2D
:1040D00081F108430421B1EB601F02D1C14840685F
:1040E00001E0C048406A6021022292FAA2F2B2FACC
:1040F00082F2114301F01F02012191400840002883
:10410000BDD04FE00020012191FAA1F1B1FA81F177
:10411000B54A02EB8101C1F88004FDF7CFFD0546E9
:1041200006E0FDF7CBFD401B022801D9032057E52F
:104130006020022191FAA1F1B1FA81F10843012135
:10414000B1EB601F02D1A74800681DE0602002218A
:1041500091FAA1F1B1FA81F108430221B1EB601F9C
:1041600002D1A048006A0FE06020022191FAA1F17B
:10417000B1FA81F108430421B1EB601F02D19948E3
:10418000406801E09748406A6021022292FAA2F258
:10419000B2FA82F2114301F01F020121914008405E
:1041A0000028BED1207800F00400042873D1002636
:1041B0008C48C06900F0805070B900BF8948C06960
:1041C00040F080508749C8610846C06900F08050BF
:1041D000009000BF00BF01268448006800F4807092
:1041E000B0B98248006840F4807080490860FDF7EB
:1041F00065FD054606E0FDF761FD401B642801D919
:104200000320EDE47948006800F480700028F2D0C3
:1042100000BFE068012806D17248006A40F0010042
:104220007049086227E0E06858B96E48006A20F0DB
:1042300001006C4908620846006A20F00400086228
:1042400019E0E06805280BD16648006A40F00400D8
:10425000644908620846006A40F0010008620AE00A
:104260006048006A20F001005E4908620846006A62
:1042700020F00400086200BFE068B8B3FDF71EFD3F
:10428000054609E0FDF71AFD401B41F288318842DE
:1042900002D90320A4E48BE04020022191FAA1F18D
:1042A000B1FA81F108430121B1EB601F02D14D4801
:1042B00000681EE04020022191FAA1F1B1FA81F1DB
:1042C00008430221B1EB601F02D14648006A10E0AA
:1042D0004020022191FAA1F1B1FA81F108430421B1
:1042E000B1EB601F03D13F48406802E010E03D4859
:1042F000406A4021022292FAA2F2B2FA82F21143FB
:1043000001F01F020121914008400028BAD046E088
:10431000FDF7D4FC054608E0FDF7D0FC401B41F258
:104320008831884201D903205AE44020022191FAC1
:10433000A1F1B1FA81F108430121B1EB601F02D173
:10434000284800681DE04020022191FAA1F1B1FA4D
:1043500081F108430221B1EB601F02D12148006ABC
:104360000FE04020022191FAA1F1B1FA81F1084356
:104370000421B1EB601F02D11A48406801E01948DE
:10438000406A4021022292FAA2F2B2FA82F211436A
:1043900001F01F020121914008400028BCD1012EEC
:1043A00005D11048C06920F080500E49C86100BF97
:1043B000E069002874D00B48406800F00C00082821
:1043C0006FD0E06902286DD100204FF0807191FA22
:1043D000A1F1B1FA81F1044A42F82100FDF76EFC27
:1043E00005460CE000100240000042420070004010
:1043F000FDF764FC401B022801D9032047E420207C
:10440000010591FAA1F1B1FA81F108430121B1EB63
:10441000601F02D16F4800681DE02020010591FA5D
:10442000A1F1B1FA81F108430221B1EB601F02D181
:104430006848006A0FE02020010591FAA1F1B1FA65
:1044400081F108430421B1EB601F02D1614840684B
:1044500001E06048406A20210A0592FAA2F2B2FA0D
:1044600082F2114301F01F0201219140084000280F
:10447000BED1D4E9081008435649496821F47411A3
:104480000843544948600121080690FAA0F0B0FAA8
:1044900080F0514A42F82010FDF710FC054609E073
:1044A00095E092E041E0FDF709FC401B022801D9AC
:1044B000032038E42020010591FAA1F1B1FA81F13D
:1044C00008430121B1EB601F02D1424800681DE0A2
:1044D0002020010591FAA1F1B1FA81F108430221EE
:1044E000B1EB601F02D13B48006A0FE020200105BC
:1044F00091FAA1F1B1FA81F108430421B1EB601FF7
:1045000002D13448406801E03248406A20210A055F
:1045100092FAA2F2B2FA82F2114301F01F020121D3
:10452000914008400028BED051E000214FF080703B
:1045300090FAA0F0B0FA80F0274A42F82010FDF778
:10454000BDFB054606E0FDF7B9FB401B022801D97B
:1045500003202FE42020010591FAA1F1B1FA81F1A5
:1045600008430121B1EB601F02D11A4800681DE029
:104570002020010591FAA1F1B1FA81F1084302214D
:10458000B1EB601F02D11348006A0FE02020010543
:1045900091FAA1F1B1FA81F108430421B1EB601F56
:1045A00002D10C48406801E00A48406A20210A050F
:1045B00092FAA2F2B2FA82F2114301F01F02012133
:1045C000914008400028BED101E001207FE4002096
:1045D0007DE40000001002400000424210B5044695
:1045E0000CB9012010BD022084F85D00206800682D
:1045F00020F0400021680860204600F075F8002097
:10460000206684F85D0000BF84F85C0000BF00BF36
:10461000E8E7014691F85D00704770B504460CB9B3
:10462000012070BD606A00B900BF0021A16294F84A
:104630005D0028B9002084F85C00204600F06AF88C
:10464000022084F85D002068006820F040002168A6
:104650000860E068B0F5E06F01D9002501E04FF493
:104660008055E068B0F5706F05D0E068B0F5E06F98
:1046700001D00021A162206B40B9E068B0F5E06F85
:1046800002D90221216301E001212163D4E9010162
:1046900008432169084361690843218B01F40071D3
:1046A0000843E1690843216A0843A16A0843216875
:1046B00008600421A06901EA1040616A0843616B47
:1046C0000843E16808432843216848602068C069BE
:1046D00020F400602168C86100202066012084F871
:1046E0005D0000209DE7000010B5044607492068E2
:1046F00088420AD10648806920F4805004498861C4
:10470000E0214FF09040FDF75BF910BD0030014013
:104710000010024010B586B0044611492068884256
:104720001CD100BF0F48806940F480500D4988615A
:104730000846806900F48050009000BF00BFE02070
:104740000190022002900020039003200490052095
:10475000059001A94FF09040FDF7C0F906B010BDDB
:1047600000300140001002402DE9FC5F04460D4678
:1047700016461F46DDF830804FF0000A00200190F9
:1047800081464FF0010B009000BF94F85C000128B7
:1047900002D10220BDE8FC9F012084F85C0000BF2C
:1047A000FDF78CFA814694F85DA060680190BAF13B
:1047B000010F0BD00198B0F5827F04D1A06810B929
:1047C000BAF1040F02D00220009007E10DB106B14A
:1047D00017B90120009001E194F85D00042802D08F
:1047E000052084F85D00002020662664A4F8467049
:1047F000A4F84470A563E787A787E0642065E068B4
:10480000B0F5E06F03D8B4F84600012806D9206857
:10481000406820F480502168486005E020684068C6
:1048200040F48050216848602068006800F0400033
:10483000402805D02068006840F0400021680860EA
:10484000E068B0F5E06F47D9606810B1E08F0128EB
:1048500006D128882168C860AD1CE08F401EE08723
:1048600032E0BBF1000F10D0E08F70B1206880689B
:1048700000F00200022808D128882168C860AD1C19
:10488000E08F401EE0874FF0000BB4F8460078B18F
:104890002068806800F0010050B12068C068308056
:1048A000B61CB4F84600401EA4F846004FF0010BB9
:1048B00008F1010040B1FDF701FAA0EB0900404505
:1048C00002D30320009089E0E08F0028C9D1B4F81A
:1048D00046000028C5D174E0606810B1E08F01285F
:1048E00011D1E08F012807D928882168C860AD1C44
:1048F000E08F801EE08706E015F8010B2168087341
:10490000E08F401EE08755E0BBF1000F1BD0E08F29
:10491000C8B12068806800F00200022813D1E08F3F
:10492000012807D928882168C860AD1CE08F801E47
:10493000E08706E015F8010B21680873E08F401E40
:10494000E0874FF0000BB4F8460038B32068806869
:1049500000F0010010B3B4F84600012813D9206814
:10496000C0683080B61CB4F84600801EA4F846002B
:10497000B4F8460001280FD82068406840F4805001
:104980002168486008E02068007B06F8010BB4F855
:104990004600401EA4F846004FF0010B08F101004C
:1049A00040B1FDF78BF9A0EB0900404502D303208D
:1049B000009013E0E08F0028A6D1B4F8460000284C
:1049C000A2D14A464146204602F04FFB08B12020C2
:1049D0002066206E08B10120009000BF012084F8FD
:1049E0005D0000BF002084F85C0000BF0098D1E6A5
:1049F000042808D14FF0E021096941F004014FF08B
:104A0000E022116107E04FF0E021096921F0040183
:104A10004FF0E0221161704770B504462546681ECC
:104A2000B0F1807F01D301200FE0681E4FF0E0213C
:104A300048610F214FF0FF3004F0BCFD00204FF023
:104A4000E021886107200861002070BD7047704731
:104A50007047000010B50346002200BF93F83C00E9
:104A6000012801D1022010BD012083F83C0000BFC5
:104A700022F0FF00CC6840EA040222F440708C6807
:104A800040EA040222F480604C6840EA040222F406
:104A900000600C6840EA040222F480500C6940EA8D
:104AA000040222F400504C6940EA040222F48040DF
:104AB0008C6A40EA040222F400408C6A40EA040254
:104AC00022F470200C8B40EA0442104C1868A0427B
:104AD00003D00F4C1868A0420ED122F470008C8CC9
:104AE00040EA045222F08070CC6940EA040222F0CD
:104AF00000700C6A40EA04021868426400BF00209B
:104B000083F83C0000BF00BFADE70000002C01406F
:104B10000034014030B502460B4600BF92F83C001D
:104B2000012801D1022030BD012082F83C0000BFE5
:104B300010684168106884680F4D1068A84203D05F
:104B40000E4D1068A84203D121F47001586801434A
:104B500021F070011868014324F080049868044330
:104B6000106841601068846000BF002082F83C003B
:104B700000BF00BFD7E70000002C01400034014017
:104B800010B504460CB9012010BD94F83D0028B9B9
:104B9000002084F83C00204600F00CF8022084F845
:104BA0003D00211D206802F063FE012084F83D00D5
:104BB0000020E9E738B504461F492068884215D12E
:104BC00000BF1E48C06940F020001C49C86108466B
:104BD000C06900F02000009000BF00BF0022114615
:104BE0003720FDF717FC3720FDF704FC1449206837
:104BF00088420DD100BF1148806940F400300F4950
:104C000088610846806900F40030009000BF11E020
:104C10000C49206888420DD100BF0848806940F4E3
:104C20008020064988610846806900F48020009051
:104C300000BF00BF38BD000000140040001002405B
:104C4000004401400048014001460868C06840F047
:104C500001000A68D0600868006840F001000A6836
:104C6000106000207047704710B504462068006946
:104C7000C0F34000D8B12068C068C0F34000B0B1B4
:104C80006FF00200216808610120207720688069A8
:104C900000F0030018B12046FFF7E5FF05E02046CD
:104CA00000F02CF9204600F03FFA00202077206821
:104CB0000069C0F38000D8B12068C068C0F38000EC
:104CC000B0B16FF0040021680861022020772068ED
:104CD000806900F4407018B12046FFF7C4FF05E07A
:104CE000204600F00BF9204600F01EFA0020207745
:104CF00020680069C0F3C000D8B12068C068C0F364
:104D0000C000B0B16FF0080021680861042020776E
:104D10002068C06900F0030018B12046FFF7A3FF28
:104D200005E0204600F0EAF8204600F0FDF90020FA
:104D3000207720680069C0F30010D8B12068C068EF
:104D4000C0F30010B0B16FF01000216808610820B6
:104D500020772068C06900F4407018B12046FFF742
:104D600082FF05E0204600F0C9F8204600F0DCF99B
:104D7000002020772068006900F0010058B1206809
:104D8000C06800F0010030B16FF0010021680861D7
:104D9000204600F003FA20680069C0F3C01058B143
:104DA0002068C068C0F3C01030B16FF08000216887
:104DB00008612046FFF74BFE20680069C0F3002021
:104DC00058B12068C068C0F3C01030B16FF4807073
:104DD000216808612046FFF739FE20680069C0F3AA
:104DE000801058B12068C068C0F3801030B16FF0F7
:104DF000400021680861204600F0D9F92068006968
:104E0000C0F3401058B12068C068C0F3401030B102
:104E10006FF02000216808612046FFF719FE10BDE1
:104E200010B586B004462D49206888420DD1012076
:104E3000019002200290002003900490022005902F
:104E400001A92748FCF74AFE46E026492068884227
:104E50000DD1C01301900220029000200390049015
:104E60000220059001A92048FCF738FE34E01F49D4
:104E7000206888420DD14015019002200290002048
:104E8000039004900320059001A91948FCF726FE21
:104E900022E01849206888420DD11020019002209C
:104EA00002900020039004900120059001A90C4875
:104EB000FCF714FE10E01049206888420CD1202035
:104EC0000190022002900020039004900A20059097
:104ED00001A90348FCF702FE06B010BD0004004023
:104EE0000004004800080040000C00480040014059
:104EF000001400480044014000480140704770B56C
:104F000004460D46164600BF94F83C00012801D126
:104F1000022070BD012084F83C0000BF022084F80C
:104F20003D000C2E51D005DC4EB1042E1ED0082EB3
:104F30007AD133E0102E60D0142EF9D175E02946D5
:104F4000206802F001FD2068806940F008002168B7
:104F500088612068806920F00400216888612068E9
:104F60008069296908432168886177E029462068BB
:104F700002F042FD2068806940F400602168886189
:104F80002068806920F480602168886120688069D9
:104F9000296940EA0120216888615FE0294620688C
:104FA00002F088FD2068C06940F008002168C861EF
:104FB0002068C06920F004002168C8612068C069C9
:104FC000296908432168C86148E02946206802F041
:104FD000CDFD2068C06940F400602168C861206888
:104FE000C06920F480602168C8612068C0692969AF
:104FF00040EA01202168C86130E02946206802F0BB
:10500000F3FD2068406D40F0080021684865206885
:10501000406D20F00400216848652068406D2969D2
:1050200008432168486519E017E02946206802F026
:1050300015FE2068406D40F40060216848652068D6
:10504000406D20F48060216848652068406D2969C2
:1050500040EA01202168486500E000BF00BF012050
:1050600084F83D0000BF002084F83C0000BF00BF72
:105070004FE710B504460CB9012010BD94F83D006F
:1050800028B9002084F83C00204600F00DF80220EA
:1050900084F83D00211D206802F0EAFB012084F81D
:1050A0003D000020E9E7000008B51B4A0168914275
:1050B0000DD100BF1949C96941F00201174AD161F8
:1050C0001146C96901F00201009100BF23E0144AB2
:1050D000016891420DD100BF1049C96941F0040136
:1050E0000E4AD1611146C96901F00401009100BF67
:1050F00011E00C4A016891420DD100BF074989694E
:1051000041F48031054A91611146896901F4803189
:10511000009100BF00BF08BD000400400010024025
:1051200000080040004001407047000030B50446D0
:105130000D4601222946206802F0F8FB124920683A
:1051400088420FD01149206888420BD0104920684E
:10515000884207D00F492068884203D00E49206852
:10516000884201D1012000E0002028B12068406C75
:1051700040F40040216848642068006840F0010065
:1051800021680860002030BD002C0140003401403F
:1051900000400140004401400048014010B5044671
:1051A0002068B0F1804F01D1FDF77AF810BD70474B
:1051B0007047000010B50446074884420AD100BF7A
:1051C00014210648FBF783F814220449024800F032
:1051D00095F900E000BF10BDC41800209003002026
:1051E0002DE9F04104462068C5692068066805F08D
:1051F0000F08B8F1000F0AD105F0200038B106F011
:10520000200020B1204602F047FEBDE8F081206872
:105210008768B8F1000F7DD007F0010018B906F4D7
:105220009070002876D005F0010048B106F4807037
:1052300030B1012021680862E06E40F00100E066B4
:1052400005F0020048B107F0010030B102202168EA
:105250000862E06E40F00400E06605F0040048B12A
:1052600007F0010030B1042021680862E06E40F0D0
:105270000200E06605F0080060B106F0200010B9F9
:1052800007F0010030B1082021680862E06E40F0AC
:105290000800E066E06E68B305F0200028B106F073
:1052A000200010B1204602F0F7FDE06E00F008008B
:1052B00028B92068806800F04000402824D12046AA
:1052C00002F0CAFD2068806800F04000402817D135
:1052D0002068806820F0400021688860606E58B1C6
:1052E0002148616E4863606EFCF72AFB10B1606E66
:1052F000416B88470DE00DE02046FFF75BFF08E0BB
:105300002046FFF757FF04E02046FFF753FF002039
:10531000E0667AE705F4801078B107F4800060B1A8
:105320004FF4801021680862202084F8690084F816
:105330006A002046FFF73CFF67E705F0800030B1C8
:1053400006F0800018B1204602F062FF5DE705F02C
:10535000400030B106F0400018B1204602F08CFD4C
:1053600053E700BF51E70000417E000810B5044636
:105370000CB9012010BDA06900B100E000BF94F895
:10538000690028B9002084F86800204600F02AF857
:10539000242084F869002068006820F0010021685A
:1053A0000860204602F0BEFD012800D1E2E7606AF5
:1053B00010B1204602F08EFC2068406820F4904036
:1053C000216848602068806820F02A002168886091
:1053D0002068006840F0010021680860204602F063
:1053E000F5FCC7E710B586B004463F4920688842FF
:1053F00024D100BF3D48806940F480403B4988612A
:105400000846806900F48040009000BF00BF302053
:1054100001900220029000200390032004900720B6
:10542000059001A93248FCF759FB002205212520EF
:10543000FCF7F0FF2520FCF7DDFF52E02D49206846
:10544000884225D100BF2948C06940F4003027496F
:10545000C8610846C06900F40030009000BF00BF7A
:105460000C20019002200290002003900320049061
:105470000720059001A94FF09040FCF72FFB002278
:1054800005212620FCF7C6FF2620FCF7B3FF28E005
:1054900019492068884224D100BF1448C06940F4EB
:1054A00080201249C8610846C06900F4802000903D
:1054B00000BF00BF4FF44060019002200290002026
:1054C0000390032004900720059001A90848FCF7E9
:1054D00005FB002205212720FCF79CFF2720FCF775
:1054E00089FF06B010BD00000038014000100240E6
:1054F00000080048004400400048004010B5034642
:1055000093F86A00202847D101B10AB9012010BDE3
:1055100000BF93F86800012801D10220F7E70120BD
:1055200083F8680000BF5965A3F85820A3F85A20F3
:1055300000BF9868B0F5805F0AD1186920B940F2C1
:10554000FF10A3F85C000EE0FF20A3F85C000AE067
:10555000986840B9186918B9FF20A3F85C0002E008
:105560007F20A3F85C0000BF0020D866222083F8CB
:105570006A0000BF002083F8680000BF18688068D8
:1055800040F001001C68A0601868006840F490704A
:105590001C6820600020BAE70220B8E710B5044676
:1055A0000B48844211D114220A490B48FAF776FEBF
:1055B000142208490648FFF7A1FF14210548FAF70D
:1055C00086FE202084F86A0000E000BF10BD0000C5
:1055D000C4180020900300207C03002010B503466F
:1055E00093F86900202824D101B10AB9012010BD27
:1055F00000BF93F86800012801D10220F7E70120DD
:1056000083F8680000BF43F84C1F9A80DA800020BE
:105610001862212058774C3B00BF002083F86800B7
:1056200000BF1868006840F080001C6820600020FF
:10563000DDE70220DBE7704707E04FF40051034845
:10564000FCF732FB02A003F071FFF6E70010004800
:10565000486172646661756C7448616E646C6572F1
:105660002121212121210D0A000000000168896902
:10567000C1F3400111B1002102689162016889699A
:1056800001F0010129B90168896941F0010102684D
:105690009161704770B504460D46164620688069D2
:1056A000C0F30010002837D013E0681C88B125B182
:1056B000FCF704FB801BA8420BD9202084F8410092
:1056C000002084F8420000BF84F8400000BF03209F
:1056D00070BD20688069C0F340100028E5D010201C
:1056E0002168C86120202168C8612046FFF7BEFFFD
:1056F00020684068094908402168486004206064C7
:10570000202084F84100002084F8420000BF84F883
:10571000400000BF0120DBE70020D9E700E800FEE1
:105720002DE9F8430446894615461E46DDE908780A
:105730001E48F2B2002349460090204600F080F84F
:1057400042463946204600F0EBF838B1606C042838
:1057500002D10120BDE8F8830320FBE7012E03D12D
:10576000E8B22168886213E0C5F3072021688862E7
:1057700042463946204600F0D3F830B1606C042828
:1057800001D10120E6E70320E4E7E8B2216888625E
:105790003B46002240212046CDF8008000F06AF808
:1057A00008B10320D6E70020D4E7000000200080E5
:1057B0002DE9F8430446894615461E46DDE908787A
:1057C0001E48F2B2C30249460090204600F038F865
:1057D00042463946204600F0A3F838B1606C0428F0
:1057E00002D10120BDE8F8830320FBE7012E03D19D
:1057F000E8B22168886213E0C5F307202168886257
:1058000042463946204600F08BF830B1606C0428DF
:1058100001D10120E6E70320E4E7E8B221688862CD
:105820003B46002280212046CDF8008000F022F87F
:1058300008B10320D6E70020D4E700000020008054
:10584000F0B5059C05686D684FF4806606EA54560D
:1058500066F0FC2646F4C046B543C1F309064FF492
:105860007F0707EA02473E431E4326433543066847
:105870007560F0BD2DE9F04104460E4617461D4601
:10588000DDF8188015E0681C98B12DB1FCF716FA08
:10589000A0EB0800A8420CD9202084F84100002089
:1058A00084F8420000BF84F8400000BF0320BDE838
:1058B000F081206880693040B04201D1012000E0D1
:1058C0000020B842DFD00020F1E770B504460D4655
:1058D00016461DE0324629462046FFF7DBFE08B19A
:1058E000012070BD25B1FCF7E9F9801BA8420FD952
:1058F000606C40F020006064202084F841000020AB
:1059000084F8420000BF84F8400000BF0320E8E7AD
:1059100020688069C0F340100028DBD00020E0E759
:1059200070B504460D4616461FE03246294620460D
:10593000FFF7B0FE08B1012070BD681CA8B125B109
:10594000FCF7BCF9801BA8420FD9606C40F0200026
:105950006064202084F84100002084F8420000BFE9
:1059600084F8400000BF0320E6E720688069C0F3A8
:1059700040000028D9D00020DEE7000010B5034821
:10598000FCF70CFA00F004F810BD0000742C0020A5
:1059900010B50B48FCF720FA88B90A480849086096
:1059A0003221074881600121C1600021016141610C
:1059B000C161016200F008F80148FCF711FA10BD5E
:1059C000742C00200054004010B586B0044600BF7F
:1059D0001448406940F480201249486108464069F3
:1059E00000F48020009000BF00BFC0200190022082
:1059F00002900390032004900420059001A90A4816
:105A0000FCF76CF800BF0748C06940F40010054976
:105A1000C8610846C06900F40010009000BF00BFD4
:105A200006B010BD00100240000400487FB50446D7
:105A30000D460026002003900A480068012103AAB1
:105A40000B46CDE9002102902A4621460648FCF784
:105A500029FA06460EB1FFF791FF9DF80C0004B03D
:105A600070BD0000FC010020742C002077B583B0CD
:105A700004460D46002609480068012105AA0B4688
:105A8000CDE9002102902A4621460548FCF7E8FAB4
:105A900006460EB1FFF772FF06B070BDFC01002094
:105AA000742C002038B50446012222216846FBF7F9
:105AB000D1FE44B99DF8000000F07F0000909DF8F1
:105AC0000000009009E0012C07D19DF8000000F0D3
:105AD000F70000909DF80000009001222221684606
